{
  "address": "0xCf7Ed3AccA5a467e9e704C703E8D87F634fB0Fc9",
  "abi": [
    {
      "inputs": [
        {
          "internalType": "address",
          "name": "vrfCoordinatorV2",
          "type": "address"
        },
        {
          "internalType": "uint256",
          "name": "entranceFee",
          "type": "uint256"
        },
        {
          "internalType": "bytes32",
          "name": "gasLane",
          "type": "bytes32"
        },
        {
          "internalType": "uint64",
          "name": "subscriptionId",
          "type": "uint64"
        },
        {
          "internalType": "uint32",
          "name": "callbackGasLimit",
          "type": "uint32"
        },
        {
          "internalType": "uint256",
          "name": "interval",
          "type": "uint256"
        }
      ],
      "stateMutability": "nonpayable",
      "type": "constructor"
    },
    {
      "inputs": [
        {
          "internalType": "address",
          "name": "have",
          "type": "address"
        },
        {
          "internalType": "address",
          "name": "want",
          "type": "address"
        }
      ],
      "name": "OnlyCoordinatorCanFulfill",
      "type": "error"
    },
    {
      "inputs": [],
      "name": "Raffle__NotEnoughETHEntered",
      "type": "error"
    },
    {
      "inputs": [],
      "name": "Raffle__NotOpen",
      "type": "error"
    },
    {
      "inputs": [],
      "name": "Raffle__TransferFailed",
      "type": "error"
    },
    {
      "inputs": [
        {
          "internalType": "uint256",
          "name": "currentBalance",
          "type": "uint256"
        },
        {
          "internalType": "uint256",
          "name": "numPlayers",
          "type": "uint256"
        },
        {
          "internalType": "uint256",
          "name": "raffleState",
          "type": "uint256"
        }
      ],
      "name": "Raffle__UpkeepNotNeeded",
      "type": "error"
    },
    {
      "anonymous": false,
      "inputs": [
        {
          "indexed": true,
          "internalType": "address",
          "name": "player",
          "type": "address"
        }
      ],
      "name": "RaffleEnter",
      "type": "event"
    },
    {
      "anonymous": false,
      "inputs": [
        {
          "indexed": true,
          "internalType": "uint256",
          "name": "requestId",
          "type": "uint256"
        }
      ],
      "name": "RequestedRaffleWinner",
      "type": "event"
    },
    {
      "anonymous": false,
      "inputs": [
        {
          "indexed": true,
          "internalType": "address",
          "name": "winner",
          "type": "address"
        }
      ],
      "name": "WinnerPicked",
      "type": "event"
    },
    {
      "inputs": [
        {
          "internalType": "bytes",
          "name": "",
          "type": "bytes"
        }
      ],
      "name": "checkUpkeep",
      "outputs": [
        {
          "internalType": "bool",
          "name": "upKeepNeeded",
          "type": "bool"
        },
        {
          "internalType": "bytes",
          "name": "",
          "type": "bytes"
        }
      ],
      "stateMutability": "nonpayable",
      "type": "function"
    },
    {
      "inputs": [],
      "name": "enterRaffle",
      "outputs": [],
      "stateMutability": "payable",
      "type": "function"
    },
    {
      "inputs": [],
      "name": "getBalance",
      "outputs": [
        {
          "internalType": "uint256",
          "name": "",
          "type": "uint256"
        }
      ],
      "stateMutability": "view",
      "type": "function"
    },
    {
      "inputs": [],
      "name": "getEntranceFee",
      "outputs": [
        {
          "internalType": "uint256",
          "name": "",
          "type": "uint256"
        }
      ],
      "stateMutability": "view",
      "type": "function"
    },
    {
      "inputs": [],
      "name": "getInterval",
      "outputs": [
        {
          "internalType": "uint256",
          "name": "",
          "type": "uint256"
        }
      ],
      "stateMutability": "view",
      "type": "function"
    },
    {
      "inputs": [],
      "name": "getLastTimeStamp",
      "outputs": [
        {
          "internalType": "uint256",
          "name": "",
          "type": "uint256"
        }
      ],
      "stateMutability": "view",
      "type": "function"
    },
    {
      "inputs": [],
      "name": "getNumWords",
      "outputs": [
        {
          "internalType": "uint256",
          "name": "",
          "type": "uint256"
        }
      ],
      "stateMutability": "pure",
      "type": "function"
    },
    {
      "inputs": [],
      "name": "getNumberOfPlayers",
      "outputs": [
        {
          "internalType": "uint256",
          "name": "",
          "type": "uint256"
        }
      ],
      "stateMutability": "view",
      "type": "function"
    },
    {
      "inputs": [
        {
          "internalType": "uint256",
          "name": "index",
          "type": "uint256"
        }
      ],
      "name": "getPlayer",
      "outputs": [
        {
          "internalType": "address",
          "name": "",
          "type": "address"
        }
      ],
      "stateMutability": "view",
      "type": "function"
    },
    {
      "inputs": [],
      "name": "getPlayers",
      "outputs": [
        {
          "internalType": "address payable[]",
          "name": "",
          "type": "address[]"
        }
      ],
      "stateMutability": "view",
      "type": "function"
    },
    {
      "inputs": [],
      "name": "getRaffleState",
      "outputs": [
        {
          "internalType": "enum Raffle.RaffleState",
          "name": "",
          "type": "uint8"
        }
      ],
      "stateMutability": "view",
      "type": "function"
    },
    {
      "inputs": [],
      "name": "getRecentWinner",
      "outputs": [
        {
          "internalType": "address",
          "name": "",
          "type": "address"
        }
      ],
      "stateMutability": "view",
      "type": "function"
    },
    {
      "inputs": [],
      "name": "getRequestConfirmations",
      "outputs": [
        {
          "internalType": "uint256",
          "name": "",
          "type": "uint256"
        }
      ],
      "stateMutability": "pure",
      "type": "function"
    },
    {
      "inputs": [
        {
          "internalType": "bytes",
          "name": "",
          "type": "bytes"
        }
      ],
      "name": "performUpkeep",
      "outputs": [],
      "stateMutability": "nonpayable",
      "type": "function"
    },
    {
      "inputs": [
        {
          "internalType": "uint256",
          "name": "requestId",
          "type": "uint256"
        },
        {
          "internalType": "uint256[]",
          "name": "randomWords",
          "type": "uint256[]"
        }
      ],
      "name": "rawFulfillRandomWords",
      "outputs": [],
      "stateMutability": "nonpayable",
      "type": "function"
    }
  ],
  "transactionHash": "0x9e730b357734368776d43e7c13363d1ea1fd5dd3ebae7fe03f092099b8b3fbf7",
  "args": [
    "0x5FbDB2315678afecb367f032d93F642f64180aa3",
    "100000000000000000",
    "0x474e34a077df58807dbe9c96d3c009b23b3c6d0cce433e59bbf5b34f823bc56c",
    "0x0000000000000000000000000000000000000000000000000000000000000001",
    "500000",
    "30"
  ],
  "numDeployments": 1,
  "solcInputHash": "a93df91b04cdf20e40f0c872a56e188b",
  "bytecode": "0x6101606040523480156200001257600080fd5b5060405162001a1438038062001a14833981810160405281019062000038919062000294565b858073ffffffffffffffffffffffffffffffffffffffff1660808173ffffffffffffffffffffffffffffffffffffffff1681525050508460a081815250508573ffffffffffffffffffffffffffffffffffffffff1660c08173ffffffffffffffffffffffffffffffffffffffff16815250508360e081815250508267ffffffffffffffff166101008167ffffffffffffffff16815250508163ffffffff166101208163ffffffff16815250506000600160146101000a81548160ff021916908360018111156200010d576200010c62000330565b5b0217905550426002819055508061014081815250505050505050506200035f565b600080fd5b600073ffffffffffffffffffffffffffffffffffffffff82169050919050565b6000620001608262000133565b9050919050565b620001728162000153565b81146200017e57600080fd5b50565b600081519050620001928162000167565b92915050565b6000819050919050565b620001ad8162000198565b8114620001b957600080fd5b50565b600081519050620001cd81620001a2565b92915050565b6000819050919050565b620001e881620001d3565b8114620001f457600080fd5b50565b6000815190506200020881620001dd565b92915050565b600067ffffffffffffffff82169050919050565b6200022d816200020e565b81146200023957600080fd5b50565b6000815190506200024d8162000222565b92915050565b600063ffffffff82169050919050565b6200026e8162000253565b81146200027a57600080fd5b50565b6000815190506200028e8162000263565b92915050565b60008060008060008060c08789031215620002b457620002b36200012e565b5b6000620002c489828a0162000181565b9650506020620002d789828a01620001bc565b9550506040620002ea89828a01620001f7565b9450506060620002fd89828a016200023c565b93505060806200031089828a016200027d565b92505060a06200032389828a01620001bc565b9150509295509295509295565b7f4e487b7100000000000000000000000000000000000000000000000000000000600052602160045260246000fd5b60805160a05160c05160e051610100516101205161014051611645620003cf60003960008181610834015261096b0152600061071f015260006106fc015260006106db0152600061069f015260008181610376015261047b0152600081816103bb015261040f01526116456000f3fe6080604052600436106100e85760003560e01c806353a2c19a1161008a57806391ad27b41161005957806391ad27b4146102b4578063c1c244e8146102df578063e55ae4e81461030a578063fd6673f514610347576100e8565b806353a2c19a146101f55780635f1b0fd8146102205780636e04ff0d1461024b5780638b5b9ccc14610289576100e8565b80631fe543e3116100c65780631fe543e31461016e5780632cfcc539146101975780634585e33b146101a1578063473f1ddc146101ca576100e8565b806309bc33a7146100ed578063115cbaf51461011857806312065fe014610143575b600080fd5b3480156100f957600080fd5b50610102610372565b60405161010f9190610cdd565b60405180910390f35b34801561012457600080fd5b5061012d61039a565b60405161013a9190610d6f565b60405180910390f35b34801561014f57600080fd5b506101586103b1565b6040516101659190610cdd565b60405180910390f35b34801561017a57600080fd5b5061019560048036038101906101909190610f23565b6103b9565b005b61019f610479565b005b3480156101ad57600080fd5b506101c860048036038101906101c39190610fda565b6105e8565b005b3480156101d657600080fd5b506101df6107ab565b6040516101ec9190611068565b60405180910390f35b34801561020157600080fd5b5061020a6107d5565b6040516102179190610cdd565b60405180910390f35b34801561022c57600080fd5b506102356107e4565b6040516102429190610cdd565b60405180910390f35b34801561025757600080fd5b50610272600480360381019061026d9190611138565b6107f1565b60405161028092919061121b565b60405180910390f35b34801561029557600080fd5b5061029e6108d9565b6040516102ab919061131b565b60405180910390f35b3480156102c057600080fd5b506102c9610967565b6040516102d69190610cdd565b60405180910390f35b3480156102eb57600080fd5b506102f461098f565b6040516103019190610cdd565b60405180910390f35b34801561031657600080fd5b50610331600480360381019061032c919061133d565b610999565b60405161033e9190611068565b60405180910390f35b34801561035357600080fd5b5061035c6109e0565b6040516103699190610cdd565b60405180910390f35b60007f0000000000000000000000000000000000000000000000000000000000000000905090565b6000600160149054906101000a900460ff16905090565b600047905090565b7f000000000000000000000000000000000000000000000000000000000000000073ffffffffffffffffffffffffffffffffffffffff163373ffffffffffffffffffffffffffffffffffffffff161461046b57337f00000000000000000000000000000000000000000000000000000000000000006040517f1cf993f400000000000000000000000000000000000000000000000000000000815260040161046292919061136a565b60405180910390fd5b61047582826109ec565b5050565b7f00000000000000000000000000000000000000000000000000000000000000003410156104d3576040517fbd4e069500000000000000000000000000000000000000000000000000000000815260040160405180910390fd5b600060018111156104e7576104e6610cf8565b5b600160149054906101000a900460ff16600181111561050957610508610cf8565b5b14610540576040517f1425571c00000000000000000000000000000000000000000000000000000000815260040160405180910390fd5b6000339080600181540180825580915050600190039060005260206000200160009091909190916101000a81548173ffffffffffffffffffffffffffffffffffffffff021916908373ffffffffffffffffffffffffffffffffffffffff1602179055503373ffffffffffffffffffffffffffffffffffffffff167f0805e1d667bddb8a95f0f09880cf94f403fb596ce79928d9f29b74203ba284d460405160405180910390a2565b6000610602604051806020016040528060008152506107f1565b509050806106715747600080549050600160149054906101000a900460ff16600181111561063357610632610cf8565b5b6040517f584327aa00000000000000000000000000000000000000000000000000000000815260040161066893929190611393565b60405180910390fd5b60018060146101000a81548160ff0219169083600181111561069657610695610cf8565b5b021790555060007f000000000000000000000000000000000000000000000000000000000000000073ffffffffffffffffffffffffffffffffffffffff16635d3b1d307f00000000000000000000000000000000000000000000000000000000000000007f000000000000000000000000000000000000000000000000000000000000000060037f000000000000000000000000000000000000000000000000000000000000000060016040518663ffffffff1660e01b8152600401610760959493929190611442565b6020604051808303816000875af115801561077f573d6000803e3d6000fd5b505050506040513d601f19601f820116820180604052508101906107a391906114aa565b905050505050565b6000600160009054906101000a900473ffffffffffffffffffffffffffffffffffffffff16905090565b6000600163ffffffff16905090565b6000600361ffff16905090565b600060606000600160149054906101000a900460ff16600181111561081957610818610cf8565b5b6000600181111561082d5761082c610cf8565b5b14905060007f0000000000000000000000000000000000000000000000000000000000000000600254426108619190611506565b119050600080600080549050119050600080471190508380156108815750825b801561088a5750815b80156108935750805b9550856040518060400160405280600381526020017f30783000000000000000000000000000000000000000000000000000000000008152509550955050505050915091565b6060600080548060200260200160405190810160405280929190818152602001828054801561095d57602002820191906000526020600020905b8160009054906101000a900473ffffffffffffffffffffffffffffffffffffffff1673ffffffffffffffffffffffffffffffffffffffff1681526020019060010190808311610913575b5050505050905090565b60007f0000000000000000000000000000000000000000000000000000000000000000905090565b6000600254905090565b60008082815481106109ae576109ad61153a565b5b9060005260206000200160009054906101000a900473ffffffffffffffffffffffffffffffffffffffff169050919050565b60008080549050905090565b6000808054905082600081518110610a0757610a0661153a565b5b6020026020010151610a199190611598565b90506000808281548110610a3057610a2f61153a565b5b9060005260206000200160009054906101000a900473ffffffffffffffffffffffffffffffffffffffff16905080600160006101000a81548173ffffffffffffffffffffffffffffffffffffffff021916908373ffffffffffffffffffffffffffffffffffffffff1602179055506000600160146101000a81548160ff02191690836001811115610ac457610ac3610cf8565b5b0217905550600067ffffffffffffffff811115610ae457610ae3610de0565b5b604051908082528060200260200182016040528015610b125781602001602082028036833780820191505090505b5060009080519060200190610b28929190610c1d565b504260028190555060008173ffffffffffffffffffffffffffffffffffffffff1647604051610b56906115fa565b60006040518083038185875af1925050503d8060008114610b93576040519150601f19603f3d011682016040523d82523d6000602084013e610b98565b606091505b5050905080610bd3576040517fa1d04b3900000000000000000000000000000000000000000000000000000000815260040160405180910390fd5b8173ffffffffffffffffffffffffffffffffffffffff167f5b690ec4a06fe979403046eaeea5b3ce38524683c3001f662c8b5a829632f7df60405160405180910390a25050505050565b828054828255906000526020600020908101928215610c96579160200282015b82811115610c955782518260006101000a81548173ffffffffffffffffffffffffffffffffffffffff021916908373ffffffffffffffffffffffffffffffffffffffff16021790555091602001919060010190610c3d565b5b509050610ca39190610ca7565b5090565b5b80821115610cc0576000816000905550600101610ca8565b5090565b6000819050919050565b610cd781610cc4565b82525050565b6000602082019050610cf26000830184610cce565b92915050565b7f4e487b7100000000000000000000000000000000000000000000000000000000600052602160045260246000fd5b60028110610d3857610d37610cf8565b5b50565b6000819050610d4982610d27565b919050565b6000610d5982610d3b565b9050919050565b610d6981610d4e565b82525050565b6000602082019050610d846000830184610d60565b92915050565b6000604051905090565b600080fd5b600080fd5b610da781610cc4565b8114610db257600080fd5b50565b600081359050610dc481610d9e565b92915050565b600080fd5b6000601f19601f8301169050919050565b7f4e487b7100000000000000000000000000000000000000000000000000000000600052604160045260246000fd5b610e1882610dcf565b810181811067ffffffffffffffff82111715610e3757610e36610de0565b5b80604052505050565b6000610e4a610d8a565b9050610e568282610e0f565b919050565b600067ffffffffffffffff821115610e7657610e75610de0565b5b602082029050602081019050919050565b600080fd5b6000610e9f610e9a84610e5b565b610e40565b90508083825260208201905060208402830185811115610ec257610ec1610e87565b5b835b81811015610eeb5780610ed78882610db5565b845260208401935050602081019050610ec4565b5050509392505050565b600082601f830112610f0a57610f09610dca565b5b8135610f1a848260208601610e8c565b91505092915050565b60008060408385031215610f3a57610f39610d94565b5b6000610f4885828601610db5565b925050602083013567ffffffffffffffff811115610f6957610f68610d99565b5b610f7585828601610ef5565b9150509250929050565b600080fd5b60008083601f840112610f9a57610f99610dca565b5b8235905067ffffffffffffffff811115610fb757610fb6610f7f565b5b602083019150836001820283011115610fd357610fd2610e87565b5b9250929050565b60008060208385031215610ff157610ff0610d94565b5b600083013567ffffffffffffffff81111561100f5761100e610d99565b5b61101b85828601610f84565b92509250509250929050565b600073ffffffffffffffffffffffffffffffffffffffff82169050919050565b600061105282611027565b9050919050565b61106281611047565b82525050565b600060208201905061107d6000830184611059565b92915050565b600080fd5b600067ffffffffffffffff8211156110a3576110a2610de0565b5b6110ac82610dcf565b9050602081019050919050565b82818337600083830152505050565b60006110db6110d684611088565b610e40565b9050828152602081018484840111156110f7576110f6611083565b5b6111028482856110b9565b509392505050565b600082601f83011261111f5761111e610dca565b5b813561112f8482602086016110c8565b91505092915050565b60006020828403121561114e5761114d610d94565b5b600082013567ffffffffffffffff81111561116c5761116b610d99565b5b6111788482850161110a565b91505092915050565b60008115159050919050565b61119681611181565b82525050565b600081519050919050565b600082825260208201905092915050565b60005b838110156111d65780820151818401526020810190506111bb565b60008484015250505050565b60006111ed8261119c565b6111f781856111a7565b93506112078185602086016111b8565b61121081610dcf565b840191505092915050565b6000604082019050611230600083018561118d565b818103602083015261124281846111e2565b90509392505050565b600081519050919050565b600082825260208201905092915050565b6000819050602082019050919050565b600061128282611027565b9050919050565b61129281611277565b82525050565b60006112a48383611289565b60208301905092915050565b6000602082019050919050565b60006112c88261124b565b6112d28185611256565b93506112dd83611267565b8060005b8381101561130e5781516112f58882611298565b9750611300836112b0565b9250506001810190506112e1565b5085935050505092915050565b6000602082019050818103600083015261133581846112bd565b905092915050565b60006020828403121561135357611352610d94565b5b600061136184828501610db5565b91505092915050565b600060408201905061137f6000830185611059565b61138c6020830184611059565b9392505050565b60006060820190506113a86000830186610cce565b6113b56020830185610cce565b6113c26040830184610cce565b949350505050565b6000819050919050565b6113dd816113ca565b82525050565b600067ffffffffffffffff82169050919050565b611400816113e3565b82525050565b600061ffff82169050919050565b61141d81611406565b82525050565b600063ffffffff82169050919050565b61143c81611423565b82525050565b600060a08201905061145760008301886113d4565b61146460208301876113f7565b6114716040830186611414565b61147e6060830185611433565b61148b6080830184611433565b9695505050505050565b6000815190506114a481610d9e565b92915050565b6000602082840312156114c0576114bf610d94565b5b60006114ce84828501611495565b91505092915050565b7f4e487b7100000000000000000000000000000000000000000000000000000000600052601160045260246000fd5b600061151182610cc4565b915061151c83610cc4565b9250828203905081811115611534576115336114d7565b5b92915050565b7f4e487b7100000000000000000000000000000000000000000000000000000000600052603260045260246000fd5b7f4e487b7100000000000000000000000000000000000000000000000000000000600052601260045260246000fd5b60006115a382610cc4565b91506115ae83610cc4565b9250826115be576115bd611569565b5b828206905092915050565b600081905092915050565b50565b60006115e46000836115c9565b91506115ef826115d4565b600082019050919050565b6000611605826115d7565b915081905091905056fea264697066735822122015d3603105afd947fb59d5a207828a73e6f65b49ef40e08dfc38c5508440c46764736f6c63430008120033",
  "devdoc": {
    "author": "Ezequiel Scigolini",
    "details": "Implements Chainlink VRF v2 and Keepers",
    "kind": "dev",
    "methods": {
      "checkUpkeep(bytes)": {
        "details": "This is the function that the Chainlink Keeper nodes call they look for the 'upkeepNeeded' to return true The following should be true in order to return true: 1. Time interval should have passed 2. Raffle should at least have 1 player 3. Keeper's Subscription is funded with LINK 4. Lottery should be in 'Open' state"
      }
    },
    "title": "Raffle Contract",
    "version": 1
  },
  "userdoc": {
    "kind": "user",
    "methods": {},
    "notice": "Creating decentralized smart contract",
    "version": 1
  },
  "storageLayout": {
    "storage": [
      {
        "astId": 208,
        "contract": "contracts/Raffle.sol:Raffle",
        "label": "s_players",
        "offset": 0,
        "slot": "0",
        "type": "t_array(t_address_payable)dyn_storage"
      },
      {
        "astId": 225,
        "contract": "contracts/Raffle.sol:Raffle",
        "label": "s_recentWinner",
        "offset": 0,
        "slot": "1",
        "type": "t_address"
      },
      {
        "astId": 228,
        "contract": "contracts/Raffle.sol:Raffle",
        "label": "s_raffleState",
        "offset": 20,
        "slot": "1",
        "type": "t_enum(RaffleState)203"
      },
      {
        "astId": 230,
        "contract": "contracts/Raffle.sol:Raffle",
        "label": "s_lastTimeStamp",
        "offset": 0,
        "slot": "2",
        "type": "t_uint256"
      }
    ],
    "types": {
      "t_address": {
        "encoding": "inplace",
        "label": "address",
        "numberOfBytes": "20"
      },
      "t_address_payable": {
        "encoding": "inplace",
        "label": "address payable",
        "numberOfBytes": "20"
      },
      "t_array(t_address_payable)dyn_storage": {
        "base": "t_address_payable",
        "encoding": "dynamic_array",
        "label": "address payable[]",
        "numberOfBytes": "32"
      },
      "t_enum(RaffleState)203": {
        "encoding": "inplace",
        "label": "enum Raffle.RaffleState",
        "numberOfBytes": "1"
      },
      "t_uint256": {
        "encoding": "inplace",
        "label": "uint256",
        "numberOfBytes": "32"
      }
    }
  }
}