{
  "address": "0xc443Dd2F5A70c20e118Bef89a248A15686A08454",
  "abi": [
    {
      "inputs": [
        {
          "internalType": "address",
          "name": "_implementation",
          "type": "address"
        },
        {
          "internalType": "address",
          "name": "manager",
          "type": "address"
        },
        {
          "internalType": "address",
          "name": "upkeep",
          "type": "address"
        }
      ],
      "stateMutability": "nonpayable",
      "type": "constructor"
    },
    {
      "anonymous": false,
      "inputs": [
        {
          "indexed": true,
          "internalType": "address",
          "name": "_instance",
          "type": "address"
        },
        {
          "indexed": true,
          "internalType": "address",
          "name": "creator",
          "type": "address"
        }
      ],
      "name": "CloneCreated",
      "type": "event"
    },
    {
      "anonymous": false,
      "inputs": [],
      "name": "NewConsumerAdded",
      "type": "event"
    },
    {
      "anonymous": false,
      "inputs": [
        {
          "indexed": false,
          "internalType": "uint256",
          "name": "_upkeepId",
          "type": "uint256"
        }
      ],
      "name": "UpkeepAdded",
      "type": "event"
    },
    {
      "inputs": [],
      "name": "_manager",
      "outputs": [
        {
          "internalType": "address",
          "name": "",
          "type": "address"
        }
      ],
      "stateMutability": "view",
      "type": "function"
    },
    {
      "inputs": [],
      "name": "_upkeep",
      "outputs": [
        {
          "internalType": "address",
          "name": "",
          "type": "address"
        }
      ],
      "stateMutability": "view",
      "type": "function"
    },
    {
      "inputs": [],
      "name": "createNewRaffle",
      "outputs": [
        {
          "internalType": "address",
          "name": "newInstance",
          "type": "address"
        }
      ],
      "stateMutability": "payable",
      "type": "function"
    },
    {
      "inputs": [],
      "name": "deployer",
      "outputs": [
        {
          "internalType": "address",
          "name": "",
          "type": "address"
        }
      ],
      "stateMutability": "view",
      "type": "function"
    },
    {
      "inputs": [],
      "name": "implementation",
      "outputs": [
        {
          "internalType": "address",
          "name": "",
          "type": "address"
        }
      ],
      "stateMutability": "view",
      "type": "function"
    },
    {
      "inputs": [
        {
          "internalType": "uint256",
          "name": "",
          "type": "uint256"
        }
      ],
      "name": "raffles",
      "outputs": [
        {
          "internalType": "address",
          "name": "",
          "type": "address"
        }
      ],
      "stateMutability": "view",
      "type": "function"
    },
    {
      "inputs": [
        {
          "internalType": "address",
          "name": "",
          "type": "address"
        },
        {
          "internalType": "uint256",
          "name": "",
          "type": "uint256"
        }
      ],
      "name": "rafflesList",
      "outputs": [
        {
          "internalType": "address",
          "name": "",
          "type": "address"
        }
      ],
      "stateMutability": "view",
      "type": "function"
    },
    {
      "inputs": [
        {
          "internalType": "address",
          "name": "upkeepContract",
          "type": "address"
        }
      ],
      "name": "updateUpkeep",
      "outputs": [],
      "stateMutability": "nonpayable",
      "type": "function"
    }
  ],
  "transactionHash": "0x0a23db9aecd74083b5705b869ce52d75de59334a42d83428d9273a3d3bba6e0f",
  "args": [
    "0x802C8cB6555C57dDB0E95A1be1aD57A44EB1557a",
    "0x56687a64FEA65fda2b7ec4C3b1b9Eb27B7129eB8",
    "0x8a1ec6d7efff2834227f2cf944825a2e1df3a90a"
  ],
  "numDeployments": 1,
  "solcInputHash": "6689b44fe8c8d2a83a85bb1ad6cea596",
  "bytecode": "0x60e06040523480156200001157600080fd5b506040516200105938038062001059833981810160405281019062000037919062000186565b8273ffffffffffffffffffffffffffffffffffffffff1660808173ffffffffffffffffffffffffffffffffffffffff16815250508173ffffffffffffffffffffffffffffffffffffffff1660a08173ffffffffffffffffffffffffffffffffffffffff1681525050806000806101000a81548173ffffffffffffffffffffffffffffffffffffffff021916908373ffffffffffffffffffffffffffffffffffffffff1602179055503373ffffffffffffffffffffffffffffffffffffffff1660c08173ffffffffffffffffffffffffffffffffffffffff1681525050505050620001e2565b600080fd5b600073ffffffffffffffffffffffffffffffffffffffff82169050919050565b60006200014e8262000121565b9050919050565b620001608162000141565b81146200016c57600080fd5b50565b600081519050620001808162000155565b92915050565b600080600060608486031215620001a257620001a16200011c565b5b6000620001b2868287016200016f565b9350506020620001c5868287016200016f565b9250506040620001d8868287016200016f565b9150509250925092565b60805160a05160c051610e32620002276000396000818161072901526107c40152600081816104cd01526107e801526000818161023d01526102dd0152610e326000f3fe60806040526004361061007b5760003560e01c806390401ee71161004e57806390401ee714610150578063a9878c901461016e578063d5f3948814610197578063f0329f6b146101c25761007b565b8063206f86e8146100805780635c60da1b146100bd5780635d4bc0ce146100e85780638057b0dc14610125575b600080fd5b34801561008c57600080fd5b506100a760048036038101906100a29190610977565b6101ed565b6040516100b491906109c6565b60405180910390f35b3480156100c957600080fd5b506100d261023b565b6040516100df91906109c6565b60405180910390f35b3480156100f457600080fd5b5061010f600480360381019061010a91906109e1565b61025f565b60405161011c91906109c6565b60405180910390f35b34801561013157600080fd5b5061013a61029e565b60405161014791906109c6565b60405180910390f35b6101586102c2565b60405161016591906109c6565b60405180910390f35b34801561017a57600080fd5b5061019560048036038101906101909190610a0e565b610727565b005b3480156101a357600080fd5b506101ac6107c2565b6040516101b991906109c6565b60405180910390f35b3480156101ce57600080fd5b506101d76107e6565b6040516101e491906109c6565b60405180910390f35b6002602052816000526040600020818154811061020957600080fd5b906000526020600020016000915091509054906101000a900473ffffffffffffffffffffffffffffffffffffffff1681565b7f000000000000000000000000000000000000000000000000000000000000000081565b6001818154811061026f57600080fd5b906000526020600020016000915054906101000a900473ffffffffffffffffffffffffffffffffffffffff1681565b60008054906101000a900473ffffffffffffffffffffffffffffffffffffffff1681565b6000678ac7230489e8000034146102d857600080fd5b6103017f000000000000000000000000000000000000000000000000000000000000000061080a565b90508073ffffffffffffffffffffffffffffffffffffffff1663c4d66de8336040518263ffffffff1660e01b815260040161033c91906109c6565b600060405180830381600087803b15801561035657600080fd5b505af115801561036a573d6000803e3d6000fd5b50505050600260003373ffffffffffffffffffffffffffffffffffffffff1673ffffffffffffffffffffffffffffffffffffffff168152602001908152602001600020819080600181540180825580915050600190039060005260206000200160009091909190916101000a81548173ffffffffffffffffffffffffffffffffffffffff021916908373ffffffffffffffffffffffffffffffffffffffff1602179055506001819080600181540180825580915050600190039060005260206000200160009091909190916101000a81548173ffffffffffffffffffffffffffffffffffffffff021916908373ffffffffffffffffffffffffffffffffffffffff1602179055503373ffffffffffffffffffffffffffffffffffffffff168173ffffffffffffffffffffffffffffffffffffffff167f3d2b821286d97aa9d35330d87a82f7b548b9737b10e2d1ba59994edfd50e9d2b60405160405180910390a37f000000000000000000000000000000000000000000000000000000000000000073ffffffffffffffffffffffffffffffffffffffff1663112940f9826040518263ffffffff1660e01b815260040161052491906109c6565b600060405180830381600087803b15801561053e57600080fd5b505af1158015610552573d6000803e3d6000fd5b505050507f220f0abe9c8a117e84f28dc73705e6c55247bb00f9b9d7b5ac158471fce366f160405160405180910390a160008060009054906101000a900473ffffffffffffffffffffffffffffffffffffffff1673ffffffffffffffffffffffffffffffffffffffff166318a9fb8a83624c4b4033674563918244f4000060006040518663ffffffff1660e01b81526004016105f2959493929190610be5565b6020604051808303816000875af1158015610611573d6000803e3d6000fd5b505050506040513d601f19601f820116820180604052508101906106359190610c87565b90507f302984cf11a9aef513a7434b19dd569dd8644ecd8a50891ae63dbca79780c445816040516106669190610cc3565b60405180910390a160003373ffffffffffffffffffffffffffffffffffffffff16678ac7230489e8000060405161069c90610d0f565b60006040518083038185875af1925050503d80600081146106d9576040519150601f19603f3d011682016040523d82523d6000602084013e6106de565b606091505b5050905080610722576040517f08c379a000000000000000000000000000000000000000000000000000000000815260040161071990610d70565b60405180910390fd5b505090565b7f000000000000000000000000000000000000000000000000000000000000000073ffffffffffffffffffffffffffffffffffffffff163373ffffffffffffffffffffffffffffffffffffffff161461077f57600080fd5b806000806101000a81548173ffffffffffffffffffffffffffffffffffffffff021916908373ffffffffffffffffffffffffffffffffffffffff16021790555050565b7f000000000000000000000000000000000000000000000000000000000000000081565b7f000000000000000000000000000000000000000000000000000000000000000081565b60006040517f3d602d80600a3d3981f3363d3d373d3d3d363d7300000000000000000000000081528260601b60148201527f5af43d82803e903d91602b57fd5bf3000000000000000000000000000000000060288201526037816000f0915050600073ffffffffffffffffffffffffffffffffffffffff168173ffffffffffffffffffffffffffffffffffffffff16036108d9576040517f08c379a00000000000000000000000000000000000000000000000000000000081526004016108d090610ddc565b60405180910390fd5b919050565b600080fd5b600073ffffffffffffffffffffffffffffffffffffffff82169050919050565b600061090e826108e3565b9050919050565b61091e81610903565b811461092957600080fd5b50565b60008135905061093b81610915565b92915050565b6000819050919050565b61095481610941565b811461095f57600080fd5b50565b6000813590506109718161094b565b92915050565b6000806040838503121561098e5761098d6108de565b5b600061099c8582860161092c565b92505060206109ad85828601610962565b9150509250929050565b6109c081610903565b82525050565b60006020820190506109db60008301846109b7565b92915050565b6000602082840312156109f7576109f66108de565b5b6000610a0584828501610962565b91505092915050565b600060208284031215610a2457610a236108de565b5b6000610a328482850161092c565b91505092915050565b600082825260208201905092915050565b7f526166666c790000000000000000000000000000000000000000000000000000600082015250565b6000610a82600683610a3b565b9150610a8d82610a4c565b602082019050919050565b600082825260208201905092915050565b7f3078000000000000000000000000000000000000000000000000000000000000600082015250565b6000610adf600283610a98565b9150610aea82610aa9565b602082019050919050565b6000819050919050565b600063ffffffff82169050919050565b6000819050919050565b6000610b34610b2f610b2a84610af5565b610b0f565b610aff565b9050919050565b610b4481610b19565b82525050565b6000819050919050565b60006bffffffffffffffffffffffff82169050919050565b6000610b87610b82610b7d84610b4a565b610b0f565b610b54565b9050919050565b610b9781610b6c565b82525050565b6000819050919050565b600060ff82169050919050565b6000610bcf610bca610bc584610b9d565b610b0f565b610ba7565b9050919050565b610bdf81610bb4565b82525050565b6000610100820190508181036000830152610bff81610a75565b90508181036020830152610c1281610ad2565b9050610c2160408301886109b7565b610c2e6060830187610b3b565b610c3b60808301866109b7565b81810360a0830152610c4c81610ad2565b9050610c5b60c0830185610b8e565b610c6860e0830184610bd6565b9695505050505050565b600081519050610c818161094b565b92915050565b600060208284031215610c9d57610c9c6108de565b5b6000610cab84828501610c72565b91505092915050565b610cbd81610941565b82525050565b6000602082019050610cd86000830184610cb4565b92915050565b600081905092915050565b50565b6000610cf9600083610cde565b9150610d0482610ce9565b600082019050919050565b6000610d1a82610cec565b9150819050919050565b7f7478206661696c65640000000000000000000000000000000000000000000000600082015250565b6000610d5a600983610a3b565b9150610d6582610d24565b602082019050919050565b60006020820190508181036000830152610d8981610d4d565b9050919050565b7f455243313136373a20637265617465206661696c656400000000000000000000600082015250565b6000610dc6601683610a3b565b9150610dd182610d90565b602082019050919050565b60006020820190508181036000830152610df581610db9565b905091905056fea2646970667358221220ff93dde00bd48fe6ba9fba81727e34ba91da7ded5d96c9ff83b2ab74de7b005d64736f6c63430008120033",
  "devdoc": {
    "kind": "dev",
    "methods": {},
    "version": 1
  },
  "userdoc": {
    "kind": "user",
    "methods": {},
    "version": 1
  },
  "storageLayout": {
    "storage": [
      {
        "astId": 1788,
        "contract": "contracts/RaffleFactory.sol:RaffleFactory",
        "label": "_upkeep",
        "offset": 0,
        "slot": "0",
        "type": "t_address"
      },
      {
        "astId": 1791,
        "contract": "contracts/RaffleFactory.sol:RaffleFactory",
        "label": "raffles",
        "offset": 0,
        "slot": "1",
        "type": "t_array(t_address)dyn_storage"
      },
      {
        "astId": 1808,
        "contract": "contracts/RaffleFactory.sol:RaffleFactory",
        "label": "rafflesList",
        "offset": 0,
        "slot": "2",
        "type": "t_mapping(t_address,t_array(t_address)dyn_storage)"
      }
    ],
    "types": {
      "t_address": {
        "encoding": "inplace",
        "label": "address",
        "numberOfBytes": "20"
      },
      "t_array(t_address)dyn_storage": {
        "base": "t_address",
        "encoding": "dynamic_array",
        "label": "address[]",
        "numberOfBytes": "32"
      },
      "t_mapping(t_address,t_array(t_address)dyn_storage)": {
        "encoding": "mapping",
        "key": "t_address",
        "label": "mapping(address => address[])",
        "numberOfBytes": "32",
        "value": "t_array(t_address)dyn_storage"
      }
    }
  }
}